{
  "contractName": "BlockBureau",
  "abi": [
    {
      "constant": true,
      "inputs": [],
      "name": "fb_friends_count",
      "outputs": [
        {
          "name": "",
          "type": "uint256"
        }
      ],
      "payable": false,
      "stateMutability": "view",
      "type": "function"
    },
    {
      "anonymous": false,
      "inputs": [
        {
          "indexed": false,
          "name": "user",
          "type": "address"
        },
        {
          "indexed": false,
          "name": "field",
          "type": "string"
        },
        {
          "indexed": false,
          "name": "value",
          "type": "uint256"
        }
      ],
      "name": "CreditUpdate",
      "type": "event"
    },
    {
      "constant": false,
      "inputs": [
        {
          "name": "uid",
          "type": "string"
        },
        {
          "name": "access_token",
          "type": "string"
        }
      ],
      "name": "get_fb_friends",
      "outputs": [],
      "payable": false,
      "stateMutability": "nonpayable",
      "type": "function"
    },
    {
      "constant": false,
      "inputs": [
        {
          "name": "myid",
          "type": "bytes32"
        },
        {
          "name": "result",
          "type": "string"
        }
      ],
      "name": "__callback",
      "outputs": [],
      "payable": false,
      "stateMutability": "nonpayable",
      "type": "function"
    },
    {
      "constant": false,
      "inputs": [
        {
          "name": "myid",
          "type": "bytes32"
        },
        {
          "name": "result",
          "type": "string"
        },
        {
          "name": "proof",
          "type": "bytes"
        }
      ],
      "name": "__callback",
      "outputs": [],
      "payable": false,
      "stateMutability": "nonpayable",
      "type": "function"
    }
  ],
  "bytecode": "0x608060405234801561001057600080fd5b50611dbf806100206000396000f300608060405260043610610062576000357c0100000000000000000000000000000000000000000000000000000000900463ffffffff16806327dc297e1461006757806338bbfa50146100de5780638cb1598b1461019b578063f8b21afe146101c6575b600080fd5b34801561007357600080fd5b506100dc6004803603810190808035600019169060200190929190803590602001908201803590602001908080601f0160208091040260200160405190810160405280939291908181526020018383808284378201915050505050509192919290505050610275565b005b3480156100ea57600080fd5b506101996004803603810190808035600019169060200190929190803590602001908201803590602001908080601f0160208091040260200160405190810160405280939291908181526020018383808284378201915050505050509192919290803590602001908201803590602001908080601f01602080910402602001604051908101604052809392919081815260200183838082843782019150505050505091929192905050506102b8565b005b3480156101a757600080fd5b506101b061030d565b6040518082815260200191505060405180910390f35b3480156101d257600080fd5b50610273600480360381019080803590602001908201803590602001908080601f0160208091040260200160405190810160405280939291908181526020018383808284378201915050505050509192919290803590602001908201803590602001908080601f0160208091040260200160405190810160405280939291908181526020018383808284378201915050505050509192919290505050610313565b005b6102b4828260006040519080825280601f01601f1916602001820160405280156102ae5781602001602082028038833980820191505090505b506102b8565b5050565b6102c0610485565b73ffffffffffffffffffffffffffffffffffffffff163373ffffffffffffffffffffffffffffffffffffffff161415156102f957600080fd5b610302826107e3565b600581905550505050565b60055481565b61031d60026107f7565b5061036f60017f01000000000000000000000000000000000000000000000000000000000000000260107f01000000000000000000000000000000000000000000000000000000000000000217610808565b6104806040805190810160405280600381526020017f55524c000000000000000000000000000000000000000000000000000000000081525061047b606060405190810160405280602581526020017f6a736f6e2868747470733a2f2f67726170682e66616365626f6f6b2e636f6d2f81526020017f76332e302f000000000000000000000000000000000000000000000000000000815250856040805190810160405280601681526020017f2f667269656e64733f6163636573735f746f6b656e3d00000000000000000000815250866040805190810160405280601581526020017f292e73756d6d6172792e746f74616c5f636f756e740000000000000000000000815250610b8f565b610fa4565b505050565b6000806000809054906101000a900473ffffffffffffffffffffffffffffffffffffffff1673ffffffffffffffffffffffffffffffffffffffff1614806104f5575060006104f36000809054906101000a900473ffffffffffffffffffffffffffffffffffffffff16611546565b145b156105065761050460006107f7565b505b6000809054906101000a900473ffffffffffffffffffffffffffffffffffffffff1673ffffffffffffffffffffffffffffffffffffffff166338cc48316040518163ffffffff167c0100000000000000000000000000000000000000000000000000000000028152600401602060405180830381600087803b15801561058b57600080fd5b505af115801561059f573d6000803e3d6000fd5b505050506040513d60208110156105b557600080fd5b810190808051906020019092919050505073ffffffffffffffffffffffffffffffffffffffff16600160009054906101000a900473ffffffffffffffffffffffffffffffffffffffff1673ffffffffffffffffffffffffffffffffffffffff1614151561071d576000809054906101000a900473ffffffffffffffffffffffffffffffffffffffff1673ffffffffffffffffffffffffffffffffffffffff166338cc48316040518163ffffffff167c0100000000000000000000000000000000000000000000000000000000028152600401602060405180830381600087803b1580156106a157600080fd5b505af11580156106b5573d6000803e3d6000fd5b505050506040513d60208110156106cb57600080fd5b8101908080519060200190929190505050600160006101000a81548173ffffffffffffffffffffffffffffffffffffffff021916908373ffffffffffffffffffffffffffffffffffffffff1602179055505b600160009054906101000a900473ffffffffffffffffffffffffffffffffffffffff1673ffffffffffffffffffffffffffffffffffffffff1663c281d19e6040518163ffffffff167c0100000000000000000000000000000000000000000000000000000000028152600401602060405180830381600087803b1580156107a357600080fd5b505af11580156107b7573d6000803e3d6000fd5b505050506040513d60208110156107cd57600080fd5b8101908080519060200190929190505050905090565b60006107f0826000611551565b9050919050565b6000610801611845565b9050919050565b60008060009054906101000a900473ffffffffffffffffffffffffffffffffffffffff1673ffffffffffffffffffffffffffffffffffffffff161480610877575060006108756000809054906101000a900473ffffffffffffffffffffffffffffffffffffffff16611546565b145b156108885761088660006107f7565b505b6000809054906101000a900473ffffffffffffffffffffffffffffffffffffffff1673ffffffffffffffffffffffffffffffffffffffff166338cc48316040518163ffffffff167c0100000000000000000000000000000000000000000000000000000000028152600401602060405180830381600087803b15801561090d57600080fd5b505af1158015610921573d6000803e3d6000fd5b505050506040513d602081101561093757600080fd5b810190808051906020019092919050505073ffffffffffffffffffffffffffffffffffffffff16600160009054906101000a900473ffffffffffffffffffffffffffffffffffffffff1673ffffffffffffffffffffffffffffffffffffffff16141515610a9f576000809054906101000a900473ffffffffffffffffffffffffffffffffffffffff1673ffffffffffffffffffffffffffffffffffffffff166338cc48316040518163ffffffff167c0100000000000000000000000000000000000000000000000000000000028152600401602060405180830381600087803b158015610a2357600080fd5b505af1158015610a37573d6000803e3d6000fd5b505050506040513d6020811015610a4d57600080fd5b8101908080519060200190929190505050600160006101000a81548173ffffffffffffffffffffffffffffffffffffffff021916908373ffffffffffffffffffffffffffffffffffffffff1602179055505b600160009054906101000a900473ffffffffffffffffffffffffffffffffffffffff1673ffffffffffffffffffffffffffffffffffffffff1663688dcfd7826040518263ffffffff167c010000000000000000000000000000000000000000000000000000000002815260040180827effffffffffffffffffffffffffffffffffffffffffffffffffffffffffffff19167effffffffffffffffffffffffffffffffffffffffffffffffffffffffffffff19168152602001915050600060405180830381600087803b158015610b7457600080fd5b505af1158015610b88573d6000803e3d6000fd5b5050505050565b6060806060806060806060806000808e98508d97508c96508b95508a94508451865188518a518c51010101016040519080825280601f01601f191660200182016040528015610bed5781602001602082028038833980820191505090505b50935083925060009150600090505b8851811015610caf578881815181101515610c1357fe5b9060200101517f010000000000000000000000000000000000000000000000000000000000000090047f0100000000000000000000000000000000000000000000000000000000000000028383806001019450815181101515610c7257fe5b9060200101907effffffffffffffffffffffffffffffffffffffffffffffffffffffffffffff1916908160001a9053508080600101915050610bfc565b600090505b8751811015610d67578781815181101515610ccb57fe5b9060200101517f010000000000000000000000000000000000000000000000000000000000000090047f0100000000000000000000000000000000000000000000000000000000000000028383806001019450815181101515610d2a57fe5b9060200101907effffffffffffffffffffffffffffffffffffffffffffffffffffffffffffff1916908160001a9053508080600101915050610cb4565b600090505b8651811015610e1f578681815181101515610d8357fe5b9060200101517f010000000000000000000000000000000000000000000000000000000000000090047f0100000000000000000000000000000000000000000000000000000000000000028383806001019450815181101515610de257fe5b9060200101907effffffffffffffffffffffffffffffffffffffffffffffffffffffffffffff1916908160001a9053508080600101915050610d6c565b600090505b8551811015610ed7578581815181101515610e3b57fe5b9060200101517f010000000000000000000000000000000000000000000000000000000000000090047f0100000000000000000000000000000000000000000000000000000000000000028383806001019450815181101515610e9a57fe5b9060200101907effffffffffffffffffffffffffffffffffffffffffffffffffffffffffffff1916908160001a9053508080600101915050610e24565b600090505b8451811015610f8f578481815181101515610ef357fe5b9060200101517f010000000000000000000000000000000000000000000000000000000000000090047f0100000000000000000000000000000000000000000000000000000000000000028383806001019450815181101515610f5257fe5b9060200101907effffffffffffffffffffffffffffffffffffffffffffffffffffffffffffff1916908160001a9053508080600101915050610edc565b82995050505050505050505095945050505050565b60008060008060009054906101000a900473ffffffffffffffffffffffffffffffffffffffff1673ffffffffffffffffffffffffffffffffffffffff161480611016575060006110146000809054906101000a900473ffffffffffffffffffffffffffffffffffffffff16611546565b145b156110275761102560006107f7565b505b6000809054906101000a900473ffffffffffffffffffffffffffffffffffffffff1673ffffffffffffffffffffffffffffffffffffffff166338cc48316040518163ffffffff167c0100000000000000000000000000000000000000000000000000000000028152600401602060405180830381600087803b1580156110ac57600080fd5b505af11580156110c0573d6000803e3d6000fd5b505050506040513d60208110156110d657600080fd5b810190808051906020019092919050505073ffffffffffffffffffffffffffffffffffffffff16600160009054906101000a900473ffffffffffffffffffffffffffffffffffffffff1673ffffffffffffffffffffffffffffffffffffffff1614151561123e576000809054906101000a900473ffffffffffffffffffffffffffffffffffffffff1673ffffffffffffffffffffffffffffffffffffffff166338cc48316040518163ffffffff167c0100000000000000000000000000000000000000000000000000000000028152600401602060405180830381600087803b1580156111c257600080fd5b505af11580156111d6573d6000803e3d6000fd5b505050506040513d60208110156111ec57600080fd5b8101908080519060200190929190505050600160006101000a81548173ffffffffffffffffffffffffffffffffffffffff021916908373ffffffffffffffffffffffffffffffffffffffff1602179055505b600160009054906101000a900473ffffffffffffffffffffffffffffffffffffffff1673ffffffffffffffffffffffffffffffffffffffff1663524f3889856040518263ffffffff167c01000000000000000000000000000000000000000000000000000000000281526004018080602001828103825283818151815260200191508051906020019080838360005b838110156112e85780820151818401526020810190506112cd565b50505050905090810190601f1680156113155780820380516001836020036101000a031916815260200191505b5092505050602060405180830381600087803b15801561133457600080fd5b505af1158015611348573d6000803e3d6000fd5b505050506040513d602081101561135e57600080fd5b8101908080519060200190929190505050905062030d403a02670de0b6b3a764000001811115611394576000600102915061153f565b600160009054906101000a900473ffffffffffffffffffffffffffffffffffffffff1673ffffffffffffffffffffffffffffffffffffffff1663adf59f9982600087876040518563ffffffff167c0100000000000000000000000000000000000000000000000000000000028152600401808481526020018060200180602001838103835285818151815260200191508051906020019080838360005b8381101561144c578082015181840152602081019050611431565b50505050905090810190601f1680156114795780820380516001836020036101000a031916815260200191505b50838103825284818151815260200191508051906020019080838360005b838110156114b2578082015181840152602081019050611497565b50505050905090810190601f1680156114df5780820380516001836020036101000a031916815260200191505b50955050505050506020604051808303818588803b15801561150057600080fd5b505af1158015611514573d6000803e3d6000fd5b50505050506040513d602081101561152b57600080fd5b810190808051906020019092919050505091505b5092915050565b6000813b9050919050565b6000606060008060008693506000925060009150600090505b83518110156118265760307f01000000000000000000000000000000000000000000000000000000000000000284828151811015156115a557fe5b9060200101517f010000000000000000000000000000000000000000000000000000000000000090047f0100000000000000000000000000000000000000000000000000000000000000027effffffffffffffffffffffffffffffffffffffffffffffffffffffffffffff1916101580156116bd575060397f010000000000000000000000000000000000000000000000000000000000000002848281518110151561164d57fe5b9060200101517f010000000000000000000000000000000000000000000000000000000000000090047f0100000000000000000000000000000000000000000000000000000000000000027effffffffffffffffffffffffffffffffffffffffffffffffffffffffffffff191611155b1561176e5781156116e05760008614156116d657611826565b8580600190039650505b600a83029250603084828151811015156116f657fe5b9060200101517f010000000000000000000000000000000000000000000000000000000000000090047f0100000000000000000000000000000000000000000000000000000000000000027f010000000000000000000000000000000000000000000000000000000000000090040383019250611819565b602e7f01000000000000000000000000000000000000000000000000000000000000000284828151811015156117a057fe5b9060200101517f010000000000000000000000000000000000000000000000000000000000000090047f0100000000000000000000000000000000000000000000000000000000000000027effffffffffffffffffffffffffffffffffffffffffffffffffffffffffffff1916141561181857600191505b5b808060010191505061156a565b60008611156118385785600a0a830292505b8294505050505092915050565b600080611865731d3b2638a7cc9f2cb3d298a3da7a90b67e5506ed611546565b111561190657731d3b2638a7cc9f2cb3d298a3da7a90b67e5506ed6000806101000a81548173ffffffffffffffffffffffffffffffffffffffff021916908373ffffffffffffffffffffffffffffffffffffffff1602179055506118fd6040805190810160405280600b81526020017f6574685f6d61696e6e6574000000000000000000000000000000000000000000815250611cd4565b60019050611cd1565b600061192573c03a2615d5efaf5f49f60b7bb6583eaec212fdf1611546565b11156119c65773c03a2615d5efaf5f49f60b7bb6583eaec212fdf16000806101000a81548173ffffffffffffffffffffffffffffffffffffffff021916908373ffffffffffffffffffffffffffffffffffffffff1602179055506119bd6040805190810160405280600c81526020017f6574685f726f707374656e330000000000000000000000000000000000000000815250611cd4565b60019050611cd1565b60006119e573b7a07bcf2ba2f2703b24c0691b5278999c59ac7e611546565b1115611a865773b7a07bcf2ba2f2703b24c0691b5278999c59ac7e6000806101000a81548173ffffffffffffffffffffffffffffffffffffffff021916908373ffffffffffffffffffffffffffffffffffffffff160217905550611a7d6040805190810160405280600981526020017f6574685f6b6f76616e0000000000000000000000000000000000000000000000815250611cd4565b60019050611cd1565b6000611aa573146500cfd35b22e4a392fe0adc06de1a1368ed48611546565b1115611b465773146500cfd35b22e4a392fe0adc06de1a1368ed486000806101000a81548173ffffffffffffffffffffffffffffffffffffffff021916908373ffffffffffffffffffffffffffffffffffffffff160217905550611b3d6040805190810160405280600b81526020017f6574685f72696e6b656279000000000000000000000000000000000000000000815250611cd4565b60019050611cd1565b6000611b65736f485c8bf6fc43ea212e93bbf8ce046c7f1cb475611546565b1115611bc857736f485c8bf6fc43ea212e93bbf8ce046c7f1cb4756000806101000a81548173ffffffffffffffffffffffffffffffffffffffff021916908373ffffffffffffffffffffffffffffffffffffffff16021790555060019050611cd1565b6000611be77320e12a1f859b3feae5fb2a0a32c18f5a65555bbf611546565b1115611c4a577320e12a1f859b3feae5fb2a0a32c18f5a65555bbf6000806101000a81548173ffffffffffffffffffffffffffffffffffffffff021916908373ffffffffffffffffffffffffffffffffffffffff16021790555060019050611cd1565b6000611c697351efaf4c8b3c9afbd5ab9f4bbc82784ab6ef8faa611546565b1115611ccc577351efaf4c8b3c9afbd5ab9f4bbc82784ab6ef8faa6000806101000a81548173ffffffffffffffffffffffffffffffffffffffff021916908373ffffffffffffffffffffffffffffffffffffffff16021790555060019050611cd1565b600090505b90565b8060029080519060200190611cea929190611cee565b5050565b828054600181600116156101000203166002900490600052602060002090601f016020900481019282601f10611d2f57805160ff1916838001178555611d5d565b82800160010185558215611d5d579182015b82811115611d5c578251825591602001919060010190611d41565b5b509050611d6a9190611d6e565b5090565b611d9091905b80821115611d8c576000816000905550600101611d74565b5090565b905600a165627a7a723058206050d1d654e19a576aa210e42fd3c69bd4a210a14218b319177f9dea807ee91b0029",
  "source": "pragma solidity ^0.4.11;\nimport \"installed_contracts/oraclize-api/contracts/usingOraclize.sol\";\n\ncontract BlockBureau is usingOraclize {\n  uint public fb_friends_count;\n\n  function get_fb_friends(string uid, string access_token) {\n    oraclize_setNetwork(networkID_testnet);\n    oraclize_setProof(proofType_TLSNotary | proofStorage_IPFS);\n    oraclize_query(\"URL\", strConcat(\"json(https://graph.facebook.com/v3.0/\", uid, \"/friends?access_token=\", access_token, \").summary.total_count\"));\n  }\n  \n  // Allows light clients to react on a credit change\n  event CreditUpdate(address user, string field, uint value);\n\n  function __callback(bytes32 myid, string result, bytes proof) {\n    if (msg.sender != oraclize_cbAddress()) throw;\n    fb_friends_count = parseInt(result);\n  }\n}\n",
  "sourcePath": "/Users/stephanieclaudinodaffara/Documents/UCBerkeley/2018-Spring/CS294/blockbureau/truffle/contracts/blockbureau.sol",
  "compiler": {
    "name": "solc",
    "version": "0.4.23+commit.124ca40d.Emscripten.clang"
  },
  "schemaVersion": "2.0.0",
  "updatedAt": "2018-05-07T20:31:53.939Z"
}